:080000000C944B010C9400006C
:100008000C9400000C9400000C9400000C94000068
:100018000C9400000C9400000C9400000C94000058
:100028000C9400000C9400000C9400000C94000048
:100038000C9400000C9400000C9400000C94000038
:100048000C9400000C9400000C9400000C94000028
:100058000C9400000C9400000C9400000C94000018
:100068000C9400000C9400000C9400000C94000008
:100078000C94000005072060000000000000005FED
:1000880000000007000700147F147F14242A7F2A29
:1000980012231308646236495522500005030000F4
:1000A800001C2241000041221C00082A1C2A0808C2
:1000B800083E08080050300000080808080800300A
:1000C80030000020100804023E5149453E00427F9E
:1000D800400042615149462141454B311814127F75
:1000E8001027454545393C4A4949300171090503FE
:1000F8003649494936064949291E00363600000066
:100108005636000000081422411414141414412215
:100118001408000201510906324979413E7E111145
:10012800117E7F494949363E414141227F41412262
:100138001C7F494949417F090901013E414151322A
:100148007F0808087F00417F41002040413F017F30
:10015800081422417F404040407F0204027F7F0410
:1001680008107F3E4141413E7F090909063E415141
:10017800215E7F09192946464949493101017F0114
:10018800013F4040403F1F2040201F7F2018207F14
:100198006314081463030478040361514945430058
:1001A800007F4141020408102041417F0000040201
:1001B8000102044040404040000102040020545421
:1001C80054787F48444438384444442038444448A8
:1001D8007F3854545418087E090102081454543CBA
:1001E8007F0804047800447D40002040443D00001E
:1001F8007F10284400417F40007C041804787C0864
:1002080004047838444444387C141414080814143A
:10021800187C7C080404084854545420043F444083
:10022800203C4040207C1C2040201C3C4030403C6E
:1002380044281028440C5050503C4464544C44000A
:100248000836410000007F00000041360800020126
:100258000204027F4141417F4C4F534500005749FA
:100268004E00000103070F1F3F7FFF000000000042
:100278000000010101002D4E414E00494E4600008C
:100288000800030074020100CE047C020000F89408
:10029800EE27EFBBF1E0F5BFE5BF8DE0A2E0BB279D
:1002A800ED938A95E9F780E094E0A0E0B1E0ED9362
:1002B8000197E9F7E8E8F2E085919591009761F0F8
:1002C800A591B59105901590BF01F00105900D928B
:1002D8000197E1F7FB01F0CFE0E0EEBBEFEFEDBFF8
:1002E800E4E0EEBFC0E0D2E00C946E040E94D30BB1
:1002F8000530E0E01E074CF520E030E02530E0E076
:100308003E0704F50E94DA0B008311830E94DA0B82
:10031800228333830E94ED0BAE0FBF1F1496E0E0DB
:10032800EC930E94ED0BAE0FBF1F1596E0E0EC9327
:100338000E94ED0BAE0FBF1F1696E0E0EC932F5F07
:100348003F4FDCCF0F5F1F4FD3CF0E94570E18C10E
:10035800BA93AA93EA81FB810E94DC0D3296EA8364
:10036800FB83E881F981A9E0B0E00E94ED0D3296A7
:10037800E883F983EA810E94FF0BE05FEA93AB818F
:100388000E945C0AEA81EA93E981E75FEA93EC81DB
:100398000E94040CEA810E94FF0BEA93AB81A75FDD
:1003A8000E945C0AEA81E05F0E94FF0B0E94040C35
:1003B80072C0BA93AA930E940A0C0E94110C6BC0D7
:1003C800BA93AA93E1E0E0930802E3E3E093090219
:1003D8000E94110C60C00E94D30B0530E0E01E079C
:1003E800E4F420E030E02530E0E03E079CF4EE81C4
:1003F800FF81E017F10729F4EC81FD81E217F3078B
:1004080009F001C004C01A930A93D901D2DF2F5F03
:100418003F4FE9CF0F5F1F4FE0CF0E94570E2AC210
:10042800BA93AA931A930A9300E010E00530E0E02B
:100438001E077CF52697A32DB42DE9E1F0E00E9474
:100448000A0EEC83FD83AC81BD81E5E0F0E00E94FB
:10045800050EEA83FB83AC81BD81E5E0F0E00E94F4
:100468000D0EE883F9830E94190CEC91E03031F409
:100478000E94190CE1E0EC930F5F1F4FE32DF42D60
:10048800A3E0B0E00E94E50D37963E2E4F2E26964B
:10049800CDCF1981088124960895BA93AA93772419
:1004A80088240E94300C2AF00E94350C0E94400CCF
:1004B80009F402C00E94500C0E94550C2CF40E94B2
:1004C8005A0C0E94400C09F402C00E94500C0E9471
:1004D800650C2AF00E946A0C0E94780C09F402C08C
:1004E8000E94500C0E94850C2CF40E946A0C0E94F9
:1004F8008A0C09F402C00E94500C0E94300C42F091
:100508000E94650C2AF00E94350C0E94970C09F491
:1005180002C00E94500C0E94550C44F40E94650CC5
:100528002AF00E945A0C0E94970C09F402C00E94FB
:10053800500C0E94300C42F00E94850C2CF40E9452
:10054800350C0E949C0C09F402C00E94500C0E94B9
:10055800550C44F40E94850C2CF40E945A0C0E94FD
:100568009C0C09F402C00E94500C072C082811F4B6
:10057800E0E306C0E1E0F0E0E715F80519F4E1E38F
:1005880026960895E2E0F0E0E715F80519F4E2E3AD
:100598000C942807E3E0F0E0E715F80519F4E3E325
:1005A8000C942807E4E0F0E0E715F80519F4E4E313
:1005B8000C942807E5E0F0E0E715F80519F4E5E301
:1005C8000C942807E6E0F0E0E715F80519F4E6E3EF
:1005D8000C942807E7E0F0E0E715F80519F4E7E3DD
:1005E8000C942807E8E0F0E0E715F80519F4E8E3CB
:1005F8000C9428070C9428070E94D30B0530E0E0E0
:100608001E07ACF520E030E02530E0E03E0764F559
:100618000E94ED0B0E94A10C29F00E94A70CA6E6EF
:100628000E94180A0E94ED0BAE0FBF1F1496EC91A2
:10063800E03029F00E94A70CA8E70E94180A0E943F
:10064800ED0BAE0FBF1F1696EC91E03051F00E94F3
:10065800A70C0E94B20CAA85BB851FDFAE2F0E9493
:10066800180A2F5F3F4FD0CF0F5F1F4FC7CF0E9491
:10067800570E0C942807BA93AA930E94300C62F084
:100688000E94B70C0E94BD0C39F40E94350C0E94E0
:10069800C70C0E94D20C09F006C00E94350C0E94BB
:1006A800C70C0E94D80C0E94550C64F40E94DE0C02
:1006B8000E94BD0C39F40E945A0C0E94C70C0E947B
:1006C800D20C09F006C00E945A0C0E94C70C0E9466
:1006D800D80C0E94650C72F00E94E40C0E94B70CC2
:1006E8000E94E90C39F40E946A0C0E94EF0C0E94E7
:1006F800D20C09F006C00E946A0C0E94EF0C0E94FE
:10070800D80C0E94850C74F40E94E40C0E94DE0C44
:100718000E94E90C39F40E946A0C0E94F70C0E94AE
:10072800D20C09F006C00E946A0C0E94F70C0E94C5
:10073800D80C0E94300C8AF00E94650C72F00E945E
:10074800B70C0E94B70C0E94E90C39F40E94350CD2
:100758000E94FF0C0E94D20C09F006C00E94350CC2
:100768000E94FF0C0E94D80C0E94550C8CF40E9429
:10077800650C72F00E94DE0C0E94B70C0E94E90C16
:1007880039F40E945A0C0E94FF0C0E94D20C09F006
:1007980006C00E945A0C0E94FF0C0E94D80C0E94AE
:1007A800300C8AF00E94850C74F40E94B70C0E94E9
:1007B800DE0C0E94E90C39F40E94350C0E94040DED
:1007C8000E94D20C09F006C00E94350C0E94040D4C
:1007D8000E94D80C0E94550C8CF40E94850C74F46D
:1007E8000E94DE0C0E94DE0C0E94E90C39F40E9483
:1007F8005A0C0E94040D0E94D20C09F006C00E94F7
:100808005A0C0E94040D0E94D80C0C942807BA9325
:10081800AA930E944E0E40E050E000E010E0053040
:10082800E0E01E07ECF420E030E02530E0E03E0791
:10083800A4F40E94090D0F01DB01AE0FBF1F16962D
:10084800EC91E03029F4F001DB010E94A10C11F0D9
:100858004F5F5F4F2F5F3F4FE8CF0F5F1F4FDFCFD7
:10086800EE81FF81E417F50711F4E1E001C0E0E053
:100878000E94550E28960895BA93AA930E94E40CF4
:10088800AC81BD81A8DD0E94E40CAC81BD8198DDFE
:10089800A881B981B1DE0C9428070E94D30B0530DA
:1008A800E0E01E079CF420E030E02530E0E03E0761
:1008B80054F40E94ED0BAE0FBF1F1496E0E0EC93CA
:1008C8002F5F3F4FF2CF0F5F1F4FE9CF0E94570EA8
:1008D8000C94280700E010E020E030E0ECE7F0E0BE
:1008E800E0931D02F0931E02E0912302EC7FE09357
:1008F8002302E0912302E37EEC60E0932302E0917F
:100908002402E078E263E0932402E0E0F0E0E09380
:100918001F02F0932002E0932102F0932202ADE13E
:10092800B2E00E9427064298009A019A029A039A16
:10093800049A059A55246624A5E2B2E0D7DC0E9401
:10094800180D49DD0E94180D3BDD0E941F0DA5E220
:10095800B2E052DE00997CC00E94230D009978C055
:10096800009902C0A895FCCFAA2009F45EC0E1E076
:10097800E91549F40E94090DDB01AE0FBF1F14965B
:10098800AC91A13009F011C0A5E2B2E086DF0E9467
:100998001F0D0E94AD060E94090DDB010E94D80CB4
:1009A8000E94B20C0E94270D3EC00E94090DDB0177
:1009B800AE0FBF1F1496EC91E03091F00E94090D24
:1009C800DB010E94A10C59F40E94AD06E0E0EA9315
:1009D800E4E1EA93A0E6B2E00E94200AAA2423C038
:1009E8000E94090DDB010E94A10CE9F40E94090D87
:1009F800DB010E94D80C0E94B20CA5E2B2E03BDEFB
:100A0800A5E2B2E0F9DDA9E1B0E001DFE13059F497
:100A1800AA240E94AD06E0E0EA93EAE0EA93A6E69B
:100A2800B2E00E94200A992413C00E94AD06A5E2F4
:100A3800B2E05CDC0E941F0D00E010E020E030E036
:100A480055246624E1E0AE2E0E94B20C0E94270DC8
:100A5800019936C00E94230D019932C0019902C044
:100A6800A895FCCFE1E0EA1551F50E94090DDB01DC
:100A78000E94A10C71F00E94090DDB01AE0FBF1F8F
:100A88001596E0E0EC93E52DF62D31975E2E6F2E4E
:100A980011C0E5E0F0E0E515F60564F00E94090DE7
:100AA800DB01AE0FBF1F1596E1E0EC93E1E0F0E04B
:100AB8005E0E6F1E0E942B0D0E94270D01C049D1AA
:100AC800029917C00E94230D029913C0029902C00F
:100AD800A895FCCFE1E0EA1559F4002400160106B8
:100AE80034F4015010400E942B0D0E94270D01C0C4
:100AF80030D1039917C00E94230D039913C003999D
:100B080002C0A895FCCFE1E0EA1559F40430E0E012
:100B18001E0734F40F5F1F4F0E942B0D0E94270DF4
:100B280001C017D1049917C00E94230D049913C05E
:100B3800049902C0A895FCCFE1E0EA1559F4002415
:100B48000216030634F4215030400E942B0D0E94F7
:100B5800270D01C0FED0059917C00E94230D0599E5
:100B680013C0059902C0A895FCCFE1E0EA1559F435
:100B78002430E0E03E0734F42F5F3F4F0E942B0DF6
:100B88000E94270D01C0E5D0E5CEFFCF0895AA93B6
:100B98001A93469818E0FADFE981E07811F0449A50
:100BA80001C04498E981EE0FE983F0DF439AEEDF54
:100BB8004398115081F7469A18810C946B0BAA93AD
:100BC8004598A881E4DFC3C0AA93459AA881DFDFCE
:100BD800BEC0AA931A93E981E695E695E6951E2F7D
:100BE800E4E5E19FF001DF01EA81F0E0EA0FFB1F95
:100BF800E093D402F093D502E12F18810C94B20B44
:100C0800AA93E981E068AE2FDADFE981EA93A98146
:100C1800E0DFE064AE2FD3DF0C946B0BAA93E9817D
:100C2800EA93A981EDDFE091D402F091D502EA526E
:100C3800FD4FE0810C946B0BAA930E942E0DA881A6
:100C4800A083C2DF84C0BA93AA930E94500E3E9A32
:100C5800469A3B9A43983C9A3D9A3F9A4798AAE00D
:100C6800B0E00E94BE0D479AEC81FD81309721F1DA
:100C7800E681E3701E2FEC81FD81E681E695E6951D
:100C8800E7700E2FEC81FD81E781EF773E2FAC8175
:100C9800BD810E94290EE0930402F093050212968A
:100CA8000E94290EE0931902F0931A02AC81BD81CB
:100CB80014960E94290E0DC010E003E032E3E0E034
:100CC800F0E0E0930402F0930502E0931902F09338
:100CD8001A02E0931B02F0931C02A1E270DFE12FDD
:100CE800E460AE2F6CDFE02FE061AE2F68DFE32F0A
:100CF800E068AE2F64DFA0E262DFA1E01FD0E1E090
:100D0800E0930002E0E0E0930102E1E0E0930602F4
:100D1800E09307020E940A0CE1E0E0931002E1E18F
:100D2800F2E0FA93EA93EFEFEA93A8E0B0E00E94CA
:100D3800520B0FD0E1E00E94570E86C0AA93E881BB
:100D4800E03011F0ECE001C0E8E0AE2F38DF21968A
:100D580008950E94500E30E0E0910102E03009F061
:100D68003FEFE0E0EA93A0E04BDF08EF11E0F80185
:100D780001501040309719F0A32F5EDFF8CFE0E064
:100D8800EA93A0E089D30E94570E0C94D10BAA9342
:100D98001A930A93AC81A43518F4AB81A03320F0E0
:100DA800198108810C94600BEC81EA93AC8136DFE1
:100DB8001E2FEB81E770A1E00E94CC0D0E2FEA8177
:100DC800E03011F0102B03C0E02FE0951E23A12F77
:100DD80033DF198108810C94600BAA931A93ED8173
:100DE800EA93AD811BDF1E2FE981E73011F0E8306F
:100DF80039F4EB81EA93AA810E946D0BEB8308C05A
:100E0800E33021F4EB81E095EB8302C0E03021F47C
:100E1800EA81E0951E2302C0E23029F4EA81AB8121
:100E2800EA231E2B0EC0E13029F4EA81AB81EA23C4
:100E38001E2707C0E43029F4EA81E095AB81EA2B4C
:100E48001E23A12FF9DE188126960895AA932397C9
:100E58000E944E0EA889A43548F4AF85A03330F41B
:100E6800AE85A03019F0AD85A03009F4CCC1EE856F
:100E7800E887A889BB27EE85F0E0AE0FBF1FA53530
:100E8800E0E0BE0720F0A889E4E5EA1BEE872D859F
:100E9800AF85BB27ED85F0E0AE0FBF1FD19720F0DF
:100EA800AF85E0E3EA1BED87A985A63009F05BC0B2
:100EB800EC85E13009F4A7C1E33039F4E0911B0275
:100EC800F0911C02309709F49EC10885ED85E695DE
:100ED800E695E6953E2FE22FE77019F4AD852A17BF
:100EE800E9F0A02FBB27E32FF0E00E94E50DAA85CB
:100EF800BB850E94390D269526952695532F5F931D
:100F08005F5FE22FAF91EA1748F0102FE12F1150E1
:100F1800E03019F00E943E0DF9CFF1CFAE850A17E7
:100F280011F1EE85AA85BB85F0E00E94390DED85AB
:100F3800E77009F03F5F20E02F932F5FE32FAF9119
:100F4800AE1788F41E851F931F5FE02FAF91AE1771
:100F580018F40E943E0DF7CFEE85AE81BF81F0E018
:100F68000E94390DE9CFEF85E7703E2FED85E0301F
:100F780009F449C1EA85FB85EE83FF8310E00889FF
:100F8800303009F063C0AD85A83008F45AC0E9854F
:100F9800E03011F0E33009F402C0E73009F402C090
:100FA800E83009F402C0E93009F402C0EA3021F45B
:100FB8000A93A88925DE04C0E63011F40E944B0D7F
:100FC8001F931F5FEE85AF91AE17A0F5A985A630D8
:100FD80051F40E944F0DFA93EA930E942E0DA081BE
:100FE8000E94B40B26C0E985E93011F450E00EC028
:100FF800EA3011F45FEF0AC00E944F0D0E94580DAD
:101008005E2FE985E73011F0E83021F40E945E0D8B
:101018005E2F06C0E33011F4509502C0E03019F499
:10102800A52FD2DD06C00E94620DEFEFEA93AD85D1
:10103800D4DEC6CFEF85E85FEF87ED85E850ED8712
:10104800D9C05D8520E0E0E0ED877EC0E32FAD8567
:10105800AE0FA93020F42D85E0E0ED8703C0E8E06D
:10106800E31B2E2F3A93A22F0E94620B4E2FE98585
:10107800E63011F50E944B0D1F931F5FEE85AF916F
:10108800AE17C8F40E942E0DE081E423AE2FE32FA3
:101098000E94D40D0E94680DE32FA42F0E94D40D46
:1010A800E095E1215E2B0E944F0DFA93EA93A52F5C
:1010B8000E94B40BE1CF2CC0E93011F450E003C01A
:1010C800EA30A9F45FEF0E945E0DAE2FE32F0E9475
:1010D800CC0D5E2F1F931F5FEE85AF91AE1730F4D6
:1010E8000E94620D4A93A0E078DEF4CF11C01F93EE
:1010F8001F5FEE85AF91AE1758F40E94730DAE2FA7
:10110800E32F0E94CC0DEA934A93AD8566DEEFCFBC
:10111800ED85E03009F477C0AD85A83028F4ED8579
:10112800E21B5E2FE0E003C0532FED85E850ED870A
:1011380010E0EF85E85FEF87E8E0E31B2E2F0889D2
:10114800EA85FB85EE83FF83E52FF0E0E659FD4F46
:101158004491E985E63011F50E944B0D1F931F5FFE
:10116800EE85AF91AE17C8F40E942E0DE081E423FE
:10117800AE2FE22F0E94CC0D0E94680DE22FA42F03
:101188000E94CC0DE095E1215E2B0E944F0DFA9351
:10119800EA93A52F0E94B40BE1CF2CC0E93011F4DB
:1011A80050E003C0EA30A9F45FEF0E945E0DAE2F55
:1011B800E22F0E94D40D5E2F1F931F5FEE85AF9123
:1011C800AE1730F40E94620D4A93A0E006DEF4CF19
:1011D80011C01F931F5FEE85AF91AE1758F40E94A0
:1011E800730DAE2FE22F0E94D40DEA934A93AD857A
:1011F800F4DDEFCFE885AA85BB85F0E0EA0FFB1F99
:10120800EA87FB87B3CE0E94550E619608950E9427
:10121800800D24F0E0E0F0E00C946B0BA881B9811C
:10122800A435E0E0BE0724F0E3E5F0E00C946B0B96
:10123800E881F9810C946B0B0E94800D24F0E0E0AA
:10124800F0E00C946B0BA881B981D09724F0EFE201
:10125800F0E00C946B0BE881F9810C946B0BBA935A
:10126800AA9323970E94870D8F01002E012A19F453
:10127800E0E0F0E05FC00E948E0D0F820E948E0DAC
:101288000E820E948E0D0886EB85A885EA1718F451
:10129800E0E0F0E04FC0F8010F5F1F4F5491A885C0
:1012A800BB27EE27A50FBE1FEB85F0E0EA17FB076B
:1012B80018F0E0E0F0E03EC0EE81E695E695E695B0
:1012C8004E2FEE81E77009F04F5FEF81E030A1F01B
:1012D800A985BA85EC93A885EB85EA1BF0E0DF01C8
:1012E800EF81F0E00E94E50DDF01E42FF0E00E94BD
:1012F800E50DE00FF11F1EC09801E52FF0E00E0F7D
:101308001F1FA885AF5FA887A150EB85AE1760F4B3
:10131800F9012F5F3F4FA491B0E0E42FF0E00E9465
:10132800E50D0E0F1F1FEDCFF901E491A985BA85D0
:10133800EC93F8010E94550E2C960895E0E0E09396
:101348000202A0910302BB270E94930DF0E0AE0FAA
:10135800BF1FE0910702F0E0AE0FBF1F6DDFE09303
:1013680003020895AA9321970E94870D309709F4E4
:1013780055C0AF81AA3009F44FC0EF81EA93DE016E
:1013880017966DDFAF01309709F44AC0E091060265
:10139800AE81EA0F3E2FA0910202BB27F0E0EA0FD0
:1013A800FB1F8F010535E0E01E0718F0032F1127FA
:1013B800C5DFE0910202EA93E0910302EA93E8852F
:1013C800EA930E94930DEA93E1E0EA935A934A93D1
:1013D800A7E03CDDE0910202AE81EA0FEA93E091DA
:1013E8000302EA93E0910602EA930E94930D0E9499
:1013F8009A0DE0910202EA93A09103020E94930DD4
:10140800EA0FEA933A93E09107020E949A0DE4E505
:10141800F0E0E017F10711F491DF02C00093020237
:101428000E94550E28960895AA93EA81EA93AA8104
:1014380033D0A88197DF92C1BA93AA931A93EC810B
:10144800EA93AC8129D0E981FA813196E983FA835C
:101458003197E4911E2FE03019F0A12F83DFF3CFED
:1014680018812AC1AA93EA81EA93EA81EA93E09172
:101478000902AA81EA2319F0E091000202C0E09172
:101488000102AE2F84DCE881EE0FE883E03011F42E
:10149800E1E0E883E88162C1AA93A981BB27B7DEAE
:1014A800E0930202A881BB27C7DEE09303020FC1C5
:1014B800AA932B970E944E0EAC89BB27A8DEEC8B13
:1014C800AA89BB27A4DEEA8BAB89BB27B5DEEB8BE9
:1014D800A989BB27B1DEE98BEA89E0930202E98991
:1014E800E0930302E1E0E887E989AB89EA1771F53F
:1014F8001C89AA891A1731F41A93EC89EA93A1E096
:10150800B1DFC8C0AA891A1730F4EA89E11B0E2F87
:1015180041E050E006C0AA89E12FEA1B0E2F4FEFE9
:101528005FEF3B89E0E0EE830E94A40D38F41A9344
:101538003A933395AA8596DFEF83F6CFEF81E88754
:10154800140FE02F0150E03061F7A4C0EA89AC899C
:10155800EA1739F53B89A9893A1730F4E989E31B79
:101568002E2FE1E0F0E006C0A989E32FEA1B2E2F19
:10157800EFEFFFEFED87FE871C89E0E0EE830E9426
:10158800A40D30F41A9313950E94AC0DEF83F7CF96
:10159800EF81E887ED853E0FE22F2150E03061F7BB
:1015A80079C0E0E0EE830E94A40D08F073C01C89A6
:1015B8003B89E1E02E2F0E2FAA89BB27EC89F0E0AA
:1015C800AE1BBF0BAD0155232AF40FEFFA010E94A1
:1015D800C80DAF01FA01EE0FFF1FEF87F88BA9893D
:1015E800BB27EB89F0E0AE1BBF0BAD87BE87AE858E
:1015F800AA233AF42FEFED85FE850E94C80DED87EA
:10160800FE87ED85FE85EE0FFF1FEB87FC871A939B
:101618003A93A1E027DFE887E0E0E987EA87AD852C
:10162800BE854A175B07BCF0100FEB85FC850E944E
:10163800B00DA985BA854A175B072CF4320FAF8520
:10164800B8890E94B70D1A930E94AC0DE887EA8901
:10165800E11751F718C0320FEF85F8890E94B00DD5
:10166800ED85FE85A985BA85EA17FB072CF4100FCE
:10167800AB85BC850E94B70D1A930E94AC0DE88714
:10168800E989E31741F7EB89EF5FEB8BE989EF5FB6
:10169800E98B89CF0E94550E65960895BA93AA934F
:1016A800B981A881109631F0FC81EB816A81619340
:1016B8001197E9F7EB81FC8125960895AA93E881B3
:1016C800F0E0E659FD4FA491E9810E94CC0D2296E5
:1016D8000895AA931A93E981E73011F0EA3019F4D2
:1016E8001091000209C0E93019F41091010204C0F8
:1016F800E830A1F410911002E0910102E03049F0C5
:10170800103019F0EFEF188129C0EA81E0951881AF
:1017180025C0103019F4E0E0188120C0EA81188152
:101728001DC0BA93AA93EA81E13021F4E881F981D6
:10173800E49114C0E23029F4A881B9810E942D0EE9
:101748000DC0E33041F4A881B981E0911902F0910C
:101758001A02099503C0A881B981EC9123960895CE
:10176800AA93EB81E03029F4E881A981BA81EC934E
:1017780014C0E23031F4E881A981BA810E94390E9F
:101788000CC0E33051F4E981FA81FA93EA93AA8113
:10179800E0911B02F0911C02099524960895BA93D2
:1017A800AA930E94500E00E010E00895F8016C81A1
:1017B8007D81A3E2B0E00E94E50DDB01AE0FBF1F03
:1017C800F901BD01A7E0B0E00E94E50DE60FF71FA3
:1017D8000895F8016C817D81A3E2B0E00E94E50DD7
:1017E800DB01AE0FBF1FF901BD01A7E0B0E00E9409
:1017F800E50DDB010895EA93E981EA93EC81089508
:10180800E05FEA93AB81A75F0C945C0AE1E0E093A8
:101818000802EFEFE09309020895EA81FB81FA9349
:10182800EA93AA81BB810C94AC01EA81FB816885AB
:101838007985A3E2B0E00E94E50DDB01AE0FBF1F82
:10184800E881F981BD01A7E0B0E00E94E50DDB0168
:10185800AE0FBF1F14960895AC81BD811197BB23AD
:101868000895EC81FD81319768817981A3E2B0E028
:101878000E94E50DDB010895AE0FBF1FEA81FB81D1
:10188800BD01A7E0B0E00E94E50DDB01AE0FBF1F70
:101898001496EC91E0300895E1E0F0E07E0E8F1EA2
:1018A8000895AC81BD81119615970895EC81FD814D
:1018B800319668817981A3E2B0E00E94E50DDB01F1
:1018C8000895AA81BB811197BB230895EC81FD81FE
:1018D80068817981A3E2B0E00E94E50DDB01AE0FDB
:1018E800BF1FEA81FB8108953197BD01A7E0B0E0F1
:1018F8000E94E50DDB01AE0FBF1F1496EC91E0309E
:101908000895AA81BB811196159708953196BD0156
:10191800A7E0B0E00E94E50DDB01AE0FBF1F1496F3
:10192800EC91E0300895AE0FBF1FEA81FB81DCCF58
:10193800AE0FBF1FEA81FB81E9CFAE0FBF1F15961F
:10194800EC91E0300895A0E10A02F001E85FEA9323
:10195800A9E02A02F001ED5FEA9308951A930A9329
:101968003A932A930895EC81FD813197FA93EA938B
:101978000895EC81FD81FA93EA93AC81BD810E94C0
:101988005102E0330895AE0FBF1FEA81FB81BD010C
:10199800A7E0B0E00E94E50DDB010895AE0FBF1F80
:1019A8001496AC91A0300895AE0FBF1F1696E1E0D3
:1019B800EC930895EC81FD813196FA93EA930895AA
:1019C800EC81FD81FA93EA930895AC81BD810E9470
:1019D8005102E03308953197BD01A7E0B0E00E94BD
:1019E800E50DDB0108953196BD01A7E0B0E00E9446
:1019F800E50DDB010895AE0FBF1FEA81FB81EBCF38
:101A0800AE0FBF1FEA81FB81EECFA3E2A09FF001DA
:101A1800A19FF00DEB5DFD4FDF01F901BD01A7E0CE
:101A2800B0E00E94E50D0895E0E0F0E0FA93EA9353
:101A3800A0E0B0E00895A5E2B2E00C941402AEE193
:101A4800B0E00C94BE0DA5E2B2E00C9440040E94F4
:101A5800AD0684CFA4EDB2E0ED91FD913196FE93F1
:101A6800EE933197EA52FD4F0895EA0FFB1FEE837C
:101A7800FF830895EC85EA93EF81F8853196EF832B
:101A8800F8873197FA93EA93A0E00C94B40B0A9381
:101A9800A8890C94ED05EC85EA93EF81F8853196D9
:101AA800EF83F8873197089566277727DF01CB0101
:101AB8000C94950B5A93AA850C946D0B0A93039575
:101AC800E889EA935A9308955E2FEC85EA93AF81EB
:101AD800B885882799270E94950B1E2E08950A938A
:101AE8000395E889EA93EE85EA93E985FA853196C4
:101AF800E987FA873197D8CFBA93AA93A881B98191
:101B08000E944A0E08950E944E0EE0910402F09140
:101B180005020895F8010F5F1F4F04900895E091A2
:101B28000402F09105023196E4910895EA93E0E009
:101B3800EA93E0E0F0E0FA93EA93A9E00C942A072C
:101B4800AE81AF5FAE83A150E0910802AE17089551
:101B58003A93AA850C94360AA985BA85EA0FFB1F21
:101B6800E987FA870895E985FA85EA1BFB0BE98777
:101B7800FA870895109639F088E893E10197F1F70C
:101B8800A8951197C9F70895F195E195F040089542
:101B9800EE230E2EEA2F19F0EE0F0A94E9F70895B6
:101BA800EE230E2EEA2F19F0E6950A94E9F7089528
:101BB800EE0FFF1FEE0FFF1FEE0FFF1FEE0FFF1FB1
:101BC8000895FA9FF02DEB9FF00DEA9FE02DF10D9F
:101BD80008952DD0F6DF0EF4D7DF089500241124E0
:101BE80090E1AA0FBB1F001C111C0E1A1F0A18F443
:101BF8000E0E1F1E01C0A1609A9599F7FD01D00134
:101C0800089515D0EBDF0EF4BFDF0895E7DFFD017F
:101C18000895E894B7FF04C0A095B095119668940C
:101C2800F7FDB2DFDBDFFD010EF4AEDF0895E894C7
:101C3800F7FF02C0A9DF6894B7FF06C0A095B0956A
:101C4800119600F8039400FA0895ED91FC9111970C
:101C58000895F999FECFFF93FFB7F894A1BDB2BDDF
:101C6800F89AE0B5FFBFFF910895F99B02C0A895C7
:101C7800FCCF9FB7F894A1BDB2BDF89A80B5E8171C
:101C880019F0E0BDFA9AF99A9FBF089500240A1640
:101C98000B0608955A934A933A932A931A930A93F0
:101CA80008955D814C813B812A81198108810895BD
:00000001FF
